:1000000012C02CC02BC02AC029C028C027C026C0BF
:1000100025C024C023C022C021C020C01FC01EC0D4
:100020001DC01CC01BC011241FBECFE5D4E0DEBF25
:10003000CDBF11E0A0E6B0E0E6E6F2E002C0059038
:100040000D92AE32B107D9F721E0AEE2B1E001C0C6
:100050001D92A034B207E1F792D003C1D1CF9C0129
:10006000207F332728BB98B3969596959E5F98BBC3
:10007000EFE9FFE03197F1F700C0000098B392502C
:1000800098BB8295807F88BB88B3869586958E5F66
:1000900088BB8FE99FE00197F1F700C0000088B3AB
:1000A000825088BB089582E090E0D9DF88E290E03A
:1000B000D6DF8CE090E0D3DF86E090E0D0DF0895DB
:1000C0009C01207F332728BB28B3269526952D5FDA
:1000D00028BBEFE9FFE03197F1F700C0000028B33B
:1000E000235028BB82959295907F9827807F9827F0
:1000F00088BB88B3869586958D5F88BB8FE99FE026
:100100000197F1F700C0000088B3835088BB0895C1
:1001100088E18AB98EE880BD83E389B910BC08956F
:10012000CF93DF93EC018881882331F0219690E012
:10013000C7DF89918111FBCFDF91CF9108955F9B3C
:10014000FECF8CB190E00895CF93DF9310923301EE
:1001500010923201C0E0D0E0F2DFCC5CDE4F888349
:10016000C0913201D09133012196D0933301C093D5
:100170003201CC30D10580F3DF91CF9108958FEF1C
:1001800087BB84BB90DF8FE99FE00197F1F700C048
:100190000000BEDF80E890E062DF82EC90E0C0DF2C
:1001A000D3DF8FE99FE00197F1F700C0000081E005
:1001B00090E055DF4CE050E066E870E084E391E0C9
:1001C00042D0C82FD92F4CE050E068E770E084E3BC
:1001D00091E039D0082F192F4CE050E06AE670E02A
:1001E00084E391E030D0282F392F1C161D0654F0DF
:1001F00081E090E034DF80EC90E031DF81ED90E051
:100200008FDFCECF1016110654F081E090E027DF8B
:1002100080EC90E024DF8FED90E082DFC1CF1216FA
:10022000130654F081E090E01ADF80EC90E017DFD5
:100230008DEE90E075DFB4CF80E890E010DF8AEFBC
:1002400090E06EDFADCFFB01DC014150504030F05B
:100250008D910190801919F40020B9F7881B990B32
:060260000895F894FFCFA1
:10026600E803FA00C80096006400313930303438AB
:100276003633453544370000313830303839324668
:10028600323239430000313830303839303746425F
:100296003644000063686F6F736520796F7572204E
:1002A60073746174696F6E00312E206120202020E6
:1002B600322E206200332E206320202020342E2070
:1002C60064005377617020796F7572206361726480
:1002D6000044495659412050524553454E54004119
:1002E600595553482050524553454E540041525497
:1002F600492050524553454E54004163636573731C
:100306002044656E69656400434F4E4649524D452B
:100316004400417661696C2042616C3D00506C6519
:0E03260061736520526563686172676500004F
:00000001FF
